:020000040000FA
:060000000A128A11F62F1E
:100E3C0001348316031306083F388600080083121A
:100E4C00031388018316031388010A128A111F27C2
:100E5C000A128A110800F1007108031D362F372F72
:100E6C003C2F8312031306083F395A2F3F3083124D
:100E7C0003130605F0003F3070060319462F472F69
:100E8C004E2F720803194B2F4C2F4E2FF201372F78
:100E9C003F300605F0003F307006031D562F572FCC
:100EAC00592FF201F20A3F3008000A128A11252745
:100EBC000A128A1101300A128A1131270A128A1178
:100ECC0083120313AC003E302C06031D6E2F6F2FC4
:100EDC00972F553088005030A000C330A10001304E
:100EEC00A0020030031CA103A102200A031D822FC3
:100EFC00210A031D822F832F752FAA3088005030B2
:100F0C00A200C330A3000130A2020030031CA303D3
:100F1C00A302220A031D962F230A031D962F972F37
:100F2C00892F3D302C06031D9C2F9D2FC52F0F3074
:100F3C0088005030A400C330A5000130A40200305A
:100F4C00031CA503A502240A031DB02F250A031DAB
:100F5C00B02FB12FA32FF03088005030A600C33033
:100F6C00A7000130A6020030031CA703A702260A23
:100F7C00031DC42F270A031DC42FC52FB72F3B30C9
:100F8C002C06031DCA2FCB2F602FFF30880050304A
:100F9C00A800C330A9000130A8020030031CA9032B
:100FAC00A902280A031DDE2F290A031DDE2FDF2FBD
:100FBC00D12F88015030AA00C330AB000130AA02F7
:100FCC000030031CAB03AB022A0A031DF12F2B0AC2
:100FDC00031DF12FF22FE42F602F0A128A11002823
:100FEC000A128A111E270A128A11F20083010A12B0
:040FFC008A115B2FCC
:02400E00FB3F76
:00000001FF
